{
  "_format": "hh-sol-artifact-1",
  "contractName": "Create",
  "sourceName": "contracts/VotingContract.sol",
  "abi": [
    {
      "inputs": [],
      "stateMutability": "nonpayable",
      "type": "constructor"
    },
    {
      "anonymous": false,
      "inputs": [
        {
          "indexed": false,
          "internalType": "uint256",
          "name": "candidateId",
          "type": "uint256"
        },
        {
          "indexed": false,
          "internalType": "string",
          "name": "age",
          "type": "string"
        },
        {
          "indexed": false,
          "internalType": "string",
          "name": "name",
          "type": "string"
        },
        {
          "indexed": false,
          "internalType": "string",
          "name": "image",
          "type": "string"
        },
        {
          "indexed": false,
          "internalType": "uint256",
          "name": "voterCount",
          "type": "uint256"
        },
        {
          "indexed": false,
          "internalType": "address",
          "name": "_address",
          "type": "address"
        },
        {
          "indexed": false,
          "internalType": "string",
          "name": "ipfs",
          "type": "string"
        }
      ],
      "name": "CandidateCreate",
      "type": "event"
    },
    {
      "anonymous": false,
      "inputs": [
        {
          "indexed": true,
          "internalType": "uint256",
          "name": "voter_voterId",
          "type": "uint256"
        },
        {
          "indexed": false,
          "internalType": "string",
          "name": "voter_name",
          "type": "string"
        },
        {
          "indexed": false,
          "internalType": "string",
          "name": "voter_image",
          "type": "string"
        },
        {
          "indexed": false,
          "internalType": "address",
          "name": "voter_address",
          "type": "address"
        },
        {
          "indexed": false,
          "internalType": "uint256",
          "name": "voter_allowed",
          "type": "uint256"
        },
        {
          "indexed": false,
          "internalType": "bool",
          "name": "voter_voted",
          "type": "bool"
        },
        {
          "indexed": false,
          "internalType": "uint256",
          "name": "voter_vote",
          "type": "uint256"
        },
        {
          "indexed": false,
          "internalType": "string",
          "name": "voter_ipfs",
          "type": "string"
        }
      ],
      "name": "VoterCreated",
      "type": "event"
    },
    {
      "inputs": [],
      "name": "_candidateId",
      "outputs": [
        {
          "internalType": "uint256",
          "name": "_value",
          "type": "uint256"
        }
      ],
      "stateMutability": "view",
      "type": "function"
    },
    {
      "inputs": [],
      "name": "_voterId",
      "outputs": [
        {
          "internalType": "uint256",
          "name": "_value",
          "type": "uint256"
        }
      ],
      "stateMutability": "view",
      "type": "function"
    },
    {
      "inputs": [
        {
          "internalType": "uint256",
          "name": "",
          "type": "uint256"
        }
      ],
      "name": "candidateAddress",
      "outputs": [
        {
          "internalType": "address",
          "name": "",
          "type": "address"
        }
      ],
      "stateMutability": "view",
      "type": "function"
    },
    {
      "inputs": [
        {
          "internalType": "address",
          "name": "",
          "type": "address"
        }
      ],
      "name": "candidates",
      "outputs": [
        {
          "internalType": "uint256",
          "name": "candidateId",
          "type": "uint256"
        },
        {
          "internalType": "string",
          "name": "age",
          "type": "string"
        },
        {
          "internalType": "string",
          "name": "name",
          "type": "string"
        },
        {
          "internalType": "string",
          "name": "image",
          "type": "string"
        },
        {
          "internalType": "uint256",
          "name": "voterCount",
          "type": "uint256"
        },
        {
          "internalType": "address",
          "name": "_address",
          "type": "address"
        },
        {
          "internalType": "string",
          "name": "ipfs",
          "type": "string"
        }
      ],
      "stateMutability": "view",
      "type": "function"
    },
    {
      "inputs": [],
      "name": "getCandidate",
      "outputs": [
        {
          "internalType": "address[]",
          "name": "",
          "type": "address[]"
        }
      ],
      "stateMutability": "view",
      "type": "function"
    },
    {
      "inputs": [],
      "name": "getCandidateLength",
      "outputs": [
        {
          "internalType": "uint256",
          "name": "",
          "type": "uint256"
        }
      ],
      "stateMutability": "view",
      "type": "function"
    },
    {
      "inputs": [
        {
          "internalType": "address",
          "name": "_address",
          "type": "address"
        }
      ],
      "name": "getCandidatedata",
      "outputs": [
        {
          "internalType": "string",
          "name": "",
          "type": "string"
        },
        {
          "internalType": "string",
          "name": "",
          "type": "string"
        },
        {
          "internalType": "uint256",
          "name": "",
          "type": "uint256"
        },
        {
          "internalType": "string",
          "name": "",
          "type": "string"
        },
        {
          "internalType": "uint256",
          "name": "",
          "type": "uint256"
        },
        {
          "internalType": "string",
          "name": "",
          "type": "string"
        },
        {
          "internalType": "address",
          "name": "",
          "type": "address"
        }
      ],
      "stateMutability": "view",
      "type": "function"
    },
    {
      "inputs": [],
      "name": "getVotedVoterList",
      "outputs": [
        {
          "internalType": "address[]",
          "name": "",
          "type": "address[]"
        }
      ],
      "stateMutability": "view",
      "type": "function"
    },
    {
      "inputs": [],
      "name": "getVoterLength",
      "outputs": [
        {
          "internalType": "uint256",
          "name": "",
          "type": "uint256"
        }
      ],
      "stateMutability": "view",
      "type": "function"
    },
    {
      "inputs": [],
      "name": "getVoterList",
      "outputs": [
        {
          "internalType": "address[]",
          "name": "",
          "type": "address[]"
        }
      ],
      "stateMutability": "view",
      "type": "function"
    },
    {
      "inputs": [
        {
          "internalType": "address",
          "name": "_address",
          "type": "address"
        }
      ],
      "name": "getVoterdata",
      "outputs": [
        {
          "internalType": "uint256",
          "name": "",
          "type": "uint256"
        },
        {
          "internalType": "string",
          "name": "",
          "type": "string"
        },
        {
          "internalType": "string",
          "name": "",
          "type": "string"
        },
        {
          "internalType": "address",
          "name": "",
          "type": "address"
        },
        {
          "internalType": "string",
          "name": "",
          "type": "string"
        },
        {
          "internalType": "uint256",
          "name": "",
          "type": "uint256"
        },
        {
          "internalType": "bool",
          "name": "",
          "type": "bool"
        }
      ],
      "stateMutability": "view",
      "type": "function"
    },
    {
      "inputs": [
        {
          "internalType": "address",
          "name": "_address",
          "type": "address"
        },
        {
          "internalType": "string",
          "name": "_age",
          "type": "string"
        },
        {
          "internalType": "string",
          "name": "_name",
          "type": "string"
        },
        {
          "internalType": "string",
          "name": "_image",
          "type": "string"
        },
        {
          "internalType": "string",
          "name": "_ipfs",
          "type": "string"
        }
      ],
      "name": "setCandidate",
      "outputs": [],
      "stateMutability": "nonpayable",
      "type": "function"
    },
    {
      "inputs": [
        {
          "internalType": "address",
          "name": "_candidateAddress",
          "type": "address"
        },
        {
          "internalType": "uint256",
          "name": "_candidateVoteId",
          "type": "uint256"
        }
      ],
      "name": "vote",
      "outputs": [],
      "stateMutability": "nonpayable",
      "type": "function"
    },
    {
      "inputs": [
        {
          "internalType": "uint256",
          "name": "",
          "type": "uint256"
        }
      ],
      "name": "votedVoters",
      "outputs": [
        {
          "internalType": "address",
          "name": "",
          "type": "address"
        }
      ],
      "stateMutability": "view",
      "type": "function"
    },
    {
      "inputs": [
        {
          "internalType": "address",
          "name": "_address",
          "type": "address"
        },
        {
          "internalType": "string",
          "name": "_name",
          "type": "string"
        },
        {
          "internalType": "string",
          "name": "_image",
          "type": "string"
        },
        {
          "internalType": "string",
          "name": "_ipfs",
          "type": "string"
        }
      ],
      "name": "voterRight",
      "outputs": [],
      "stateMutability": "nonpayable",
      "type": "function"
    },
    {
      "inputs": [
        {
          "internalType": "address",
          "name": "",
          "type": "address"
        }
      ],
      "name": "voters",
      "outputs": [
        {
          "internalType": "uint256",
          "name": "voter_voterId",
          "type": "uint256"
        },
        {
          "internalType": "string",
          "name": "voter_name",
          "type": "string"
        },
        {
          "internalType": "string",
          "name": "voter_image",
          "type": "string"
        },
        {
          "internalType": "address",
          "name": "voter_address",
          "type": "address"
        },
        {
          "internalType": "uint256",
          "name": "voter_allowed",
          "type": "uint256"
        },
        {
          "internalType": "bool",
          "name": "voter_voted",
          "type": "bool"
        },
        {
          "internalType": "uint256",
          "name": "voter_vote",
          "type": "uint256"
        },
        {
          "internalType": "string",
          "name": "voter_ipfs",
          "type": "string"
        }
      ],
      "stateMutability": "view",
      "type": "function"
    },
    {
      "inputs": [
        {
          "internalType": "uint256",
          "name": "",
          "type": "uint256"
        }
      ],
      "name": "votersAddress",
      "outputs": [
        {
          "internalType": "address",
          "name": "",
          "type": "address"
        }
      ],
      "stateMutability": "view",
      "type": "function"
    },
    {
      "inputs": [],
      "name": "votingOrganizer",
      "outputs": [
        {
          "internalType": "address",
          "name": "",
          "type": "address"
        }
      ],
      "stateMutability": "view",
      "type": "function"
    }
  ],
  "bytecode": "0x608060405234801561001057600080fd5b5033600260006101000a81548173ffffffffffffffffffffffffffffffffffffffff021916908373ffffffffffffffffffffffffffffffffffffffff1602179055506124f8806100616000396000f3fe608060405234801561001057600080fd5b50600436106101165760003560e01c80638e945685116100a2578063b63c82ca11610071578063b63c82ca14610304578063b9be31521461033a578063c5036fd414610358578063c91ec7121461038e578063f7522a83146103aa57610116565b80638e94568514610273578063a3ec138d14610291578063a7388967146102c8578063b28d92ae146102e657610116565b80635cc48aa7116100e95780635cc48aa7146101b55780635f74bbde146101d357806370218b85146101ef5780637831ffb31461020d5780638ab66a901461023d57610116565b80630361419e1461011b57806305ad45a4146101375780633a88251a1461015557806343242daa14610185575b600080fd5b61013560048036038101906101309190611ae2565b6103c8565b005b61013f610655565b60405161014c9190611bb6565b60405180910390f35b61016f600480360381019061016a9190611bfd565b610662565b60405161017c9190611c39565b60405180910390f35b61019f600480360381019061019a9190611bfd565b6106a1565b6040516101ac9190611c39565b60405180910390f35b6101bd6106e0565b6040516101ca9190611c39565b60405180910390f35b6101ed60048036038101906101e89190611c54565b610706565b005b6101f76108ce565b6040516102049190611d52565b60405180910390f35b61022760048036038101906102229190611bfd565b61095c565b6040516102349190611c39565b60405180910390f35b61025760048036038101906102529190611d74565b61099b565b60405161026a9796959493929190611e29565b60405180910390f35b61027b610c1d565b6040516102889190611d52565b60405180910390f35b6102ab60048036038101906102a69190611d74565b610cab565b6040516102bf989796959493929190611ecf565b60405180910390f35b6102d0610eb8565b6040516102dd9190611bb6565b60405180910390f35b6102ee610ec4565b6040516102fb9190611d52565b60405180910390f35b61031e60048036038101906103199190611d74565b610f52565b6040516103319796959493929190611f62565b60405180910390f35b61034261122a565b60405161034f9190611bb6565b60405180910390f35b610372600480360381019061036d9190611d74565b611236565b6040516103859796959493929190611fed565b60405180910390f35b6103a860048036038101906103a39190612071565b6115fe565b005b6103b2611856565b6040516103bf9190611bb6565b60405180910390f35b3373ffffffffffffffffffffffffffffffffffffffff16600260009054906101000a900473ffffffffffffffffffffffffffffffffffffffff1673ffffffffffffffffffffffffffffffffffffffff1614610458576040517f08c379a000000000000000000000000000000000000000000000000000000000815260040161044f906121ce565b60405180910390fd5b6104626000611863565b600061046e6000611879565b90506000600760008773ffffffffffffffffffffffffffffffffffffffff1673ffffffffffffffffffffffffffffffffffffffff168152602001908152602001600020905060008160040154146104c457600080fd5b60018160040181905550848160010190805190602001906104e6929190611887565b50838160020190805190602001906104ff929190611887565b50858160030160006101000a81548173ffffffffffffffffffffffffffffffffffffffff021916908373ffffffffffffffffffffffffffffffffffffffff1602179055508181600001819055506103e8816006018190555060008160050160006101000a81548160ff0219169083151502179055508281600701908051906020019061058c929190611887565b506006869080600181540180825580915050600190039060005260206000200160009091909190916101000a81548173ffffffffffffffffffffffffffffffffffffffff021916908373ffffffffffffffffffffffffffffffffffffffff160217905550817ff5f39971dd62d9929e3a9feaa6bb77fe7c7da0001babff8a65a7e51ad0201c1986868985600401548660050160009054906101000a900460ff1687600601548a60405161064597969594939291906121ee565b60405180910390a2505050505050565b6000600680549050905090565b6003818154811061067257600080fd5b906000526020600020016000915054906101000a900473ffffffffffffffffffffffffffffffffffffffff1681565b600681815481106106b157600080fd5b906000526020600020016000915054906101000a900473ffffffffffffffffffffffffffffffffffffffff1681565b600260009054906101000a900473ffffffffffffffffffffffffffffffffffffffff1681565b6000600760003373ffffffffffffffffffffffffffffffffffffffff1673ffffffffffffffffffffffffffffffffffffffff16815260200190815260200160002090508060050160009054906101000a900460ff161561079b576040517f08c379a0000000000000000000000000000000000000000000000000000000008152600401610792906122be565b60405180910390fd5b6000816004015414156107e3576040517f08c379a00000000000000000000000000000000000000000000000000000000081526004016107da9061232a565b60405180910390fd5b60018160050160006101000a81548160ff0219169083151502179055508181600601819055506005339080600181540180825580915050600190039060005260206000200160009091909190916101000a81548173ffffffffffffffffffffffffffffffffffffffff021916908373ffffffffffffffffffffffffffffffffffffffff1602179055508060040154600460008573ffffffffffffffffffffffffffffffffffffffff1673ffffffffffffffffffffffffffffffffffffffff16815260200190815260200160002060040160008282546108c29190612379565b92505081905550505050565b6060600380548060200260200160405190810160405280929190818152602001828054801561095257602002820191906000526020600020905b8160009054906101000a900473ffffffffffffffffffffffffffffffffffffffff1673ffffffffffffffffffffffffffffffffffffffff1681526020019060010190808311610908575b5050505050905090565b6005818154811061096c57600080fd5b906000526020600020016000915054906101000a900473ffffffffffffffffffffffffffffffffffffffff1681565b60046020528060005260406000206000915090508060000154908060010180546109c4906123fe565b80601f01602080910402602001604051908101604052809291908181526020018280546109f0906123fe565b8015610a3d5780601f10610a1257610100808354040283529160200191610a3d565b820191906000526020600020905b815481529060010190602001808311610a2057829003601f168201915b505050505090806002018054610a52906123fe565b80601f0160208091040260200160405190810160405280929190818152602001828054610a7e906123fe565b8015610acb5780601f10610aa057610100808354040283529160200191610acb565b820191906000526020600020905b815481529060010190602001808311610aae57829003601f168201915b505050505090806003018054610ae0906123fe565b80601f0160208091040260200160405190810160405280929190818152602001828054610b0c906123fe565b8015610b595780601f10610b2e57610100808354040283529160200191610b59565b820191906000526020600020905b815481529060010190602001808311610b3c57829003601f168201915b5050505050908060040154908060050160009054906101000a900473ffffffffffffffffffffffffffffffffffffffff1690806006018054610b9a906123fe565b80601f0160208091040260200160405190810160405280929190818152602001828054610bc6906123fe565b8015610c135780601f10610be857610100808354040283529160200191610c13565b820191906000526020600020905b815481529060010190602001808311610bf657829003601f168201915b5050505050905087565b60606005805480602002602001604051908101604052809291908181526020018280548015610ca157602002820191906000526020600020905b8160009054906101000a900473ffffffffffffffffffffffffffffffffffffffff1673ffffffffffffffffffffffffffffffffffffffff1681526020019060010190808311610c57575b5050505050905090565b6007602052806000526040600020600091509050806000015490806001018054610cd4906123fe565b80601f0160208091040260200160405190810160405280929190818152602001828054610d00906123fe565b8015610d4d5780601f10610d2257610100808354040283529160200191610d4d565b820191906000526020600020905b815481529060010190602001808311610d3057829003601f168201915b505050505090806002018054610d62906123fe565b80601f0160208091040260200160405190810160405280929190818152602001828054610d8e906123fe565b8015610ddb5780601f10610db057610100808354040283529160200191610ddb565b820191906000526020600020905b815481529060010190602001808311610dbe57829003601f168201915b5050505050908060030160009054906101000a900473ffffffffffffffffffffffffffffffffffffffff16908060040154908060050160009054906101000a900460ff1690806006015490806007018054610e35906123fe565b80601f0160208091040260200160405190810160405280929190818152602001828054610e61906123fe565b8015610eae5780601f10610e8357610100808354040283529160200191610eae565b820191906000526020600020905b815481529060010190602001808311610e9157829003601f168201915b5050505050905088565b60018060000154905081565b60606006805480602002602001604051908101604052809291908181526020018280548015610f4857602002820191906000526020600020905b8160009054906101000a900473ffffffffffffffffffffffffffffffffffffffff1673ffffffffffffffffffffffffffffffffffffffff1681526020019060010190808311610efe575b5050505050905090565b6060806000606060006060600080600460008a73ffffffffffffffffffffffffffffffffffffffff1673ffffffffffffffffffffffffffffffffffffffff168152602001908152602001600020905080600101816002018260000154836003018460040154856006018660050160009054906101000a900473ffffffffffffffffffffffffffffffffffffffff16868054610fec906123fe565b80601f0160208091040260200160405190810160405280929190818152602001828054611018906123fe565b80156110655780601f1061103a57610100808354040283529160200191611065565b820191906000526020600020905b81548152906001019060200180831161104857829003601f168201915b50505050509650858054611078906123fe565b80601f01602080910402602001604051908101604052809291908181526020018280546110a4906123fe565b80156110f15780601f106110c6576101008083540402835291602001916110f1565b820191906000526020600020905b8154815290600101906020018083116110d457829003601f168201915b50505050509550838054611104906123fe565b80601f0160208091040260200160405190810160405280929190818152602001828054611130906123fe565b801561117d5780601f106111525761010080835404028352916020019161117d565b820191906000526020600020905b81548152906001019060200180831161116057829003601f168201915b50505050509350818054611190906123fe565b80601f01602080910402602001604051908101604052809291908181526020018280546111bc906123fe565b80156112095780601f106111de57610100808354040283529160200191611209565b820191906000526020600020905b8154815290600101906020018083116111ec57829003601f168201915b50505050509150975097509750975097509750975050919395979092949650565b60008060000154905081565b600060608060006060600080600760008973ffffffffffffffffffffffffffffffffffffffff1673ffffffffffffffffffffffffffffffffffffffff16815260200190815260200160002060000154600760008a73ffffffffffffffffffffffffffffffffffffffff1673ffffffffffffffffffffffffffffffffffffffff168152602001908152602001600020600101600760008b73ffffffffffffffffffffffffffffffffffffffff1673ffffffffffffffffffffffffffffffffffffffff168152602001908152602001600020600201600760008c73ffffffffffffffffffffffffffffffffffffffff1673ffffffffffffffffffffffffffffffffffffffff16815260200190815260200160002060030160009054906101000a900473ffffffffffffffffffffffffffffffffffffffff16600760008d73ffffffffffffffffffffffffffffffffffffffff1673ffffffffffffffffffffffffffffffffffffffff168152602001908152602001600020600701600760008e73ffffffffffffffffffffffffffffffffffffffff1673ffffffffffffffffffffffffffffffffffffffff16815260200190815260200160002060040154600760008f73ffffffffffffffffffffffffffffffffffffffff1673ffffffffffffffffffffffffffffffffffffffff16815260200190815260200160002060050160009054906101000a900460ff1685805461144d906123fe565b80601f0160208091040260200160405190810160405280929190818152602001828054611479906123fe565b80156114c65780601f1061149b576101008083540402835291602001916114c6565b820191906000526020600020905b8154815290600101906020018083116114a957829003601f168201915b505050505095508480546114d9906123fe565b80601f0160208091040260200160405190810160405280929190818152602001828054611505906123fe565b80156115525780601f1061152757610100808354040283529160200191611552565b820191906000526020600020905b81548152906001019060200180831161153557829003601f168201915b50505050509450828054611565906123fe565b80601f0160208091040260200160405190810160405280929190818152602001828054611591906123fe565b80156115de5780601f106115b3576101008083540402835291602001916115de565b820191906000526020600020905b8154815290600101906020018083116115c157829003601f168201915b505050505092509650965096509650965096509650919395979092949650565b3373ffffffffffffffffffffffffffffffffffffffff16600260009054906101000a900473ffffffffffffffffffffffffffffffffffffffff1673ffffffffffffffffffffffffffffffffffffffff161461168e576040517f08c379a0000000000000000000000000000000000000000000000000000000008152600401611685906124a2565b60405180910390fd5b6116986001611863565b60006116a46001611879565b90506000600460008873ffffffffffffffffffffffffffffffffffffffff1673ffffffffffffffffffffffffffffffffffffffff168152602001908152602001600020905085816001019080519060200190611701929190611887565b508481600201908051906020019061171a929190611887565b508181600001819055508381600301908051906020019061173c929190611887565b5060008160040181905550868160050160006101000a81548173ffffffffffffffffffffffffffffffffffffffff021916908373ffffffffffffffffffffffffffffffffffffffff160217905550828160060190805190602001906117a2929190611887565b506003879080600181540180825580915050600190039060005260206000200160009091909190916101000a81548173ffffffffffffffffffffffffffffffffffffffff021916908373ffffffffffffffffffffffffffffffffffffffff1602179055507fd297f12b256bb8485a6013fb5e302017018123e99a0ebb20756c09e1707b4b908287878785600401548c896040516118459796959493929190611e29565b60405180910390a150505050505050565b6000600380549050905090565b6001816000016000828254019250508190555050565b600081600001549050919050565b828054611893906123fe565b90600052602060002090601f0160209004810192826118b557600085556118fc565b82601f106118ce57805160ff19168380011785556118fc565b828001600101855582156118fc579182015b828111156118fb5782518255916020019190600101906118e0565b5b509050611909919061190d565b5090565b5b8082111561192657600081600090555060010161190e565b5090565b6000604051905090565b600080fd5b600080fd5b600073ffffffffffffffffffffffffffffffffffffffff82169050919050565b60006119698261193e565b9050919050565b6119798161195e565b811461198457600080fd5b50565b60008135905061199681611970565b92915050565b600080fd5b600080fd5b6000601f19601f8301169050919050565b7f4e487b7100000000000000000000000000000000000000000000000000000000600052604160045260246000fd5b6119ef826119a6565b810181811067ffffffffffffffff82111715611a0e57611a0d6119b7565b5b80604052505050565b6000611a2161192a565b9050611a2d82826119e6565b919050565b600067ffffffffffffffff821115611a4d57611a4c6119b7565b5b611a56826119a6565b9050602081019050919050565b82818337600083830152505050565b6000611a85611a8084611a32565b611a17565b905082815260208101848484011115611aa157611aa06119a1565b5b611aac848285611a63565b509392505050565b600082601f830112611ac957611ac861199c565b5b8135611ad9848260208601611a72565b91505092915050565b60008060008060808587031215611afc57611afb611934565b5b6000611b0a87828801611987565b945050602085013567ffffffffffffffff811115611b2b57611b2a611939565b5b611b3787828801611ab4565b935050604085013567ffffffffffffffff811115611b5857611b57611939565b5b611b6487828801611ab4565b925050606085013567ffffffffffffffff811115611b8557611b84611939565b5b611b9187828801611ab4565b91505092959194509250565b6000819050919050565b611bb081611b9d565b82525050565b6000602082019050611bcb6000830184611ba7565b92915050565b611bda81611b9d565b8114611be557600080fd5b50565b600081359050611bf781611bd1565b92915050565b600060208284031215611c1357611c12611934565b5b6000611c2184828501611be8565b91505092915050565b611c338161195e565b82525050565b6000602082019050611c4e6000830184611c2a565b92915050565b60008060408385031215611c6b57611c6a611934565b5b6000611c7985828601611987565b9250506020611c8a85828601611be8565b9150509250929050565b600081519050919050565b600082825260208201905092915050565b6000819050602082019050919050565b611cc98161195e565b82525050565b6000611cdb8383611cc0565b60208301905092915050565b6000602082019050919050565b6000611cff82611c94565b611d098185611c9f565b9350611d1483611cb0565b8060005b83811015611d45578151611d2c8882611ccf565b9750611d3783611ce7565b925050600181019050611d18565b5085935050505092915050565b60006020820190508181036000830152611d6c8184611cf4565b905092915050565b600060208284031215611d8a57611d89611934565b5b6000611d9884828501611987565b91505092915050565b600081519050919050565b600082825260208201905092915050565b60005b83811015611ddb578082015181840152602081019050611dc0565b83811115611dea576000848401525b50505050565b6000611dfb82611da1565b611e058185611dac565b9350611e15818560208601611dbd565b611e1e816119a6565b840191505092915050565b600060e082019050611e3e600083018a611ba7565b8181036020830152611e508189611df0565b90508181036040830152611e648188611df0565b90508181036060830152611e788187611df0565b9050611e876080830186611ba7565b611e9460a0830185611c2a565b81810360c0830152611ea68184611df0565b905098975050505050505050565b60008115159050919050565b611ec981611eb4565b82525050565b600061010082019050611ee5600083018b611ba7565b8181036020830152611ef7818a611df0565b90508181036040830152611f0b8189611df0565b9050611f1a6060830188611c2a565b611f276080830187611ba7565b611f3460a0830186611ec0565b611f4160c0830185611ba7565b81810360e0830152611f538184611df0565b90509998505050505050505050565b600060e0820190508181036000830152611f7c818a611df0565b90508181036020830152611f908189611df0565b9050611f9f6040830188611ba7565b8181036060830152611fb18187611df0565b9050611fc06080830186611ba7565b81810360a0830152611fd28185611df0565b9050611fe160c0830184611c2a565b98975050505050505050565b600060e082019050612002600083018a611ba7565b81810360208301526120148189611df0565b905081810360408301526120288188611df0565b90506120376060830187611c2a565b81810360808301526120498186611df0565b905061205860a0830185611ba7565b61206560c0830184611ec0565b98975050505050505050565b600080600080600060a0868803121561208d5761208c611934565b5b600061209b88828901611987565b955050602086013567ffffffffffffffff8111156120bc576120bb611939565b5b6120c888828901611ab4565b945050604086013567ffffffffffffffff8111156120e9576120e8611939565b5b6120f588828901611ab4565b935050606086013567ffffffffffffffff81111561211657612115611939565b5b61212288828901611ab4565b925050608086013567ffffffffffffffff81111561214357612142611939565b5b61214f88828901611ab4565b9150509295509295909350565b7f4f6e6c7920746865206f7267616e697a65722063616e2063726561746520766f60008201527f7465720000000000000000000000000000000000000000000000000000000000602082015250565b60006121b8602383611dac565b91506121c38261215c565b604082019050919050565b600060208201905081810360008301526121e7816121ab565b9050919050565b600060e0820190508181036000830152612208818a611df0565b9050818103602083015261221c8189611df0565b905061222b6040830188611c2a565b6122386060830187611ba7565b6122456080830186611ec0565b61225260a0830185611ba7565b81810360c08301526122648184611df0565b905098975050505050505050565b7f796f75206861766520616c726561647920766f74656400000000000000000000600082015250565b60006122a8601683611dac565b91506122b382612272565b602082019050919050565b600060208201905081810360008301526122d78161229b565b9050919050565b7f796f752068617665206e6f20726967687420746f20766f746500000000000000600082015250565b6000612314601983611dac565b915061231f826122de565b602082019050919050565b6000602082019050818103600083015261234381612307565b9050919050565b7f4e487b7100000000000000000000000000000000000000000000000000000000600052601160045260246000fd5b600061238482611b9d565b915061238f83611b9d565b9250827fffffffffffffffffffffffffffffffffffffffffffffffffffffffffffffffff038211156123c4576123c361234a565b5b828201905092915050565b7f4e487b7100000000000000000000000000000000000000000000000000000000600052602260045260246000fd5b6000600282049050600182168061241657607f821691505b6020821081141561242a576124296123cf565b5b50919050565b7f4f6e6c7920746865206f7267616e697a65722063616e2063726561746520746860008201527f652063616e646964617465000000000000000000000000000000000000000000602082015250565b600061248c602b83611dac565b915061249782612430565b604082019050919050565b600060208201905081810360008301526124bb8161247f565b905091905056fea2646970667358221220492c6761bb95a697770bf11cb7ff173a5e90c18ab1ad1266d6e95c54e8013c3664736f6c63430008090033",
  "linkReferences": {},
  "deployedLinkReferences": {}
}